{
  "contractName": "TokenImplementation",
  "abi": [
    {
      "anonymous": false,
      "inputs": [
        {
          "indexed": true,
          "internalType": "address",
          "name": "owner",
          "type": "address"
        },
        {
          "indexed": true,
          "internalType": "address",
          "name": "spender",
          "type": "address"
        },
        {
          "indexed": false,
          "internalType": "uint256",
          "name": "value",
          "type": "uint256"
        }
      ],
      "name": "Approval",
      "type": "event"
    },
    {
      "anonymous": false,
      "inputs": [
        {
          "indexed": true,
          "internalType": "address",
          "name": "from",
          "type": "address"
        },
        {
          "indexed": true,
          "internalType": "address",
          "name": "to",
          "type": "address"
        },
        {
          "indexed": false,
          "internalType": "uint256",
          "name": "value",
          "type": "uint256"
        }
      ],
      "name": "Transfer",
      "type": "event"
    },
    {
      "inputs": [
        {
          "internalType": "address",
          "name": "owner_",
          "type": "address"
        }
      ],
      "name": "nonces",
      "outputs": [
        {
          "internalType": "uint256",
          "name": "",
          "type": "uint256"
        }
      ],
      "stateMutability": "view",
      "type": "function"
    },
    {
      "inputs": [
        {
          "internalType": "string",
          "name": "name_",
          "type": "string"
        },
        {
          "internalType": "string",
          "name": "symbol_",
          "type": "string"
        },
        {
          "internalType": "uint8",
          "name": "decimals_",
          "type": "uint8"
        },
        {
          "internalType": "uint64",
          "name": "sequence_",
          "type": "uint64"
        },
        {
          "internalType": "address",
          "name": "owner_",
          "type": "address"
        },
        {
          "internalType": "uint16",
          "name": "chainId_",
          "type": "uint16"
        },
        {
          "internalType": "bytes32",
          "name": "nativeContract_",
          "type": "bytes32"
        }
      ],
      "name": "initialize",
      "outputs": [],
      "stateMutability": "nonpayable",
      "type": "function"
    },
    {
      "inputs": [],
      "name": "name",
      "outputs": [
        {
          "internalType": "string",
          "name": "",
          "type": "string"
        }
      ],
      "stateMutability": "view",
      "type": "function"
    },
    {
      "inputs": [],
      "name": "symbol",
      "outputs": [
        {
          "internalType": "string",
          "name": "",
          "type": "string"
        }
      ],
      "stateMutability": "view",
      "type": "function"
    },
    {
      "inputs": [],
      "name": "owner",
      "outputs": [
        {
          "internalType": "address",
          "name": "",
          "type": "address"
        }
      ],
      "stateMutability": "view",
      "type": "function"
    },
    {
      "inputs": [],
      "name": "decimals",
      "outputs": [
        {
          "internalType": "uint8",
          "name": "",
          "type": "uint8"
        }
      ],
      "stateMutability": "view",
      "type": "function"
    },
    {
      "inputs": [],
      "name": "totalSupply",
      "outputs": [
        {
          "internalType": "uint256",
          "name": "",
          "type": "uint256"
        }
      ],
      "stateMutability": "view",
      "type": "function"
    },
    {
      "inputs": [],
      "name": "chainId",
      "outputs": [
        {
          "internalType": "uint16",
          "name": "",
          "type": "uint16"
        }
      ],
      "stateMutability": "view",
      "type": "function"
    },
    {
      "inputs": [],
      "name": "nativeContract",
      "outputs": [
        {
          "internalType": "bytes32",
          "name": "",
          "type": "bytes32"
        }
      ],
      "stateMutability": "view",
      "type": "function"
    },
    {
      "inputs": [
        {
          "internalType": "address",
          "name": "account_",
          "type": "address"
        }
      ],
      "name": "balanceOf",
      "outputs": [
        {
          "internalType": "uint256",
          "name": "",
          "type": "uint256"
        }
      ],
      "stateMutability": "view",
      "type": "function"
    },
    {
      "inputs": [
        {
          "internalType": "address",
          "name": "recipient_",
          "type": "address"
        },
        {
          "internalType": "uint256",
          "name": "amount_",
          "type": "uint256"
        }
      ],
      "name": "transfer",
      "outputs": [
        {
          "internalType": "bool",
          "name": "",
          "type": "bool"
        }
      ],
      "stateMutability": "nonpayable",
      "type": "function"
    },
    {
      "inputs": [
        {
          "internalType": "address",
          "name": "owner_",
          "type": "address"
        },
        {
          "internalType": "address",
          "name": "spender_",
          "type": "address"
        }
      ],
      "name": "allowance",
      "outputs": [
        {
          "internalType": "uint256",
          "name": "",
          "type": "uint256"
        }
      ],
      "stateMutability": "view",
      "type": "function"
    },
    {
      "inputs": [
        {
          "internalType": "address",
          "name": "spender_",
          "type": "address"
        },
        {
          "internalType": "uint256",
          "name": "amount_",
          "type": "uint256"
        }
      ],
      "name": "approve",
      "outputs": [
        {
          "internalType": "bool",
          "name": "",
          "type": "bool"
        }
      ],
      "stateMutability": "nonpayable",
      "type": "function"
    },
    {
      "inputs": [
        {
          "internalType": "address",
          "name": "sender_",
          "type": "address"
        },
        {
          "internalType": "address",
          "name": "recipient_",
          "type": "address"
        },
        {
          "internalType": "uint256",
          "name": "amount_",
          "type": "uint256"
        }
      ],
      "name": "transferFrom",
      "outputs": [
        {
          "internalType": "bool",
          "name": "",
          "type": "bool"
        }
      ],
      "stateMutability": "nonpayable",
      "type": "function"
    },
    {
      "inputs": [
        {
          "internalType": "address",
          "name": "spender_",
          "type": "address"
        },
        {
          "internalType": "uint256",
          "name": "addedValue_",
          "type": "uint256"
        }
      ],
      "name": "increaseAllowance",
      "outputs": [
        {
          "internalType": "bool",
          "name": "",
          "type": "bool"
        }
      ],
      "stateMutability": "nonpayable",
      "type": "function"
    },
    {
      "inputs": [
        {
          "internalType": "address",
          "name": "spender_",
          "type": "address"
        },
        {
          "internalType": "uint256",
          "name": "subtractedValue_",
          "type": "uint256"
        }
      ],
      "name": "decreaseAllowance",
      "outputs": [
        {
          "internalType": "bool",
          "name": "",
          "type": "bool"
        }
      ],
      "stateMutability": "nonpayable",
      "type": "function"
    },
    {
      "inputs": [
        {
          "internalType": "address",
          "name": "account_",
          "type": "address"
        },
        {
          "internalType": "uint256",
          "name": "amount_",
          "type": "uint256"
        }
      ],
      "name": "mint",
      "outputs": [],
      "stateMutability": "nonpayable",
      "type": "function"
    },
    {
      "inputs": [
        {
          "internalType": "address",
          "name": "account_",
          "type": "address"
        },
        {
          "internalType": "uint256",
          "name": "amount_",
          "type": "uint256"
        }
      ],
      "name": "burn",
      "outputs": [],
      "stateMutability": "nonpayable",
      "type": "function"
    },
    {
      "inputs": [
        {
          "internalType": "string",
          "name": "name_",
          "type": "string"
        },
        {
          "internalType": "string",
          "name": "symbol_",
          "type": "string"
        },
        {
          "internalType": "uint64",
          "name": "sequence_",
          "type": "uint64"
        }
      ],
      "name": "updateDetails",
      "outputs": [],
      "stateMutability": "nonpayable",
      "type": "function"
    },
    {
      "inputs": [
        {
          "internalType": "address",
          "name": "owner_",
          "type": "address"
        },
        {
          "internalType": "address",
          "name": "spender_",
          "type": "address"
        },
        {
          "internalType": "uint256",
          "name": "value_",
          "type": "uint256"
        },
        {
          "internalType": "uint256",
          "name": "deadline_",
          "type": "uint256"
        },
        {
          "internalType": "uint8",
          "name": "v_",
          "type": "uint8"
        },
        {
          "internalType": "bytes32",
          "name": "r_",
          "type": "bytes32"
        },
        {
          "internalType": "bytes32",
          "name": "s_",
          "type": "bytes32"
        }
      ],
      "name": "permit",
      "outputs": [],
      "stateMutability": "nonpayable",
      "type": "function"
    },
    {
      "inputs": [],
      "name": "DOMAIN_SEPARATOR",
      "outputs": [
        {
          "internalType": "bytes32",
          "name": "",
          "type": "bytes32"
        }
      ],
      "stateMutability": "view",
      "type": "function"
    },
    {
      "inputs": [],
      "name": "eip712Domain",
      "outputs": [
        {
          "internalType": "bytes1",
          "name": "domainFields",
          "type": "bytes1"
        },
        {
          "internalType": "string",
          "name": "domainName",
          "type": "string"
        },
        {
          "internalType": "string",
          "name": "domainVersion",
          "type": "string"
        },
        {
          "internalType": "uint256",
          "name": "domainChainId",
          "type": "uint256"
        },
        {
          "internalType": "address",
          "name": "domainVerifyingContract",
          "type": "address"
        },
        {
          "internalType": "bytes32",
          "name": "domainSalt",
          "type": "bytes32"
        },
        {
          "internalType": "uint256[]",
          "name": "domainExtensions",
          "type": "uint256[]"
        }
      ],
      "stateMutability": "view",
      "type": "function"
    }
  ],
  "bytecode": "0x608060405234801561001057600080fd5b50611a18806100206000396000f3fe608060405234801561001057600080fd5b50600436106101425760003560e01c806384b0196e116100b8578063a18cd7c61161007c578063a18cd7c6146102a8578063a457c2d7146102bb578063a9059cbb146102ce578063c71f4615146102e1578063d505accf146102f4578063dd62ed3e1461030757600080fd5b806384b0196e146102365780638da5cb5b1461025157806395d89b411461026c5780639a8a0592146102745780639dc29fac1461029557600080fd5b80633644e5151161010a5780633644e515146101c257806339509351146101ca5780633d6c043b146101dd57806340c10f19146101e557806370a08231146101fa5780637ecebe001461022357600080fd5b806306fdde0314610147578063095ea7b31461016557806318160ddd1461018857806323b872dd1461019a578063313ce567146101ad575b600080fd5b61014f610340565b60405161015c91906118d8565b60405180910390f35b6101786101733660046116aa565b6103d4565b604051901515815260200161015c565b6003545b60405190815260200161015c565b6101786101a8366004611606565b6103ea565b60045460405160ff909116815260200161015c565b61018c6104a0565b6101786101d83660046116aa565b6104af565b60085461018c565b6101f86101f33660046116aa565b6104e6565b005b61018c6102083660046115b3565b6001600160a01b031660009081526005602052604090205490565b61018c6102313660046115b3565b61051e565b61023e61053e565b60405161015c9796959493929190611843565b6007546040516001600160a01b03909116815260200161015c565b61014f61059c565b600754600160a81b900461ffff1660405161ffff909116815260200161015c565b6101f86102a33660046116aa565b6105ae565b6101f86102b63660046116d3565b6105e2565b6101786102c93660046116aa565b6106bc565b6101786102dc3660046116aa565b610757565b6101f86102ef366004611744565b610764565b6101f8610302366004611641565b6107e7565b61018c6103153660046115d4565b6001600160a01b03918216600090815260066020908152604080832093909416825291909152205490565b606060008001805461035190611981565b80601f016020809104026020016040519081016040528092919081815260200182805461037d90611981565b80156103ca5780601f1061039f576101008083540402835291602001916103ca565b820191906000526020600020905b8154815290600101906020018083116103ad57829003601f168201915b5050505050905090565b60006103e1338484610953565b50600192915050565b60006103f7848484610a78565b6001600160a01b0384166000908152600660209081526040808320338452909152902054828110156104815760405162461bcd60e51b815260206004820152602860248201527f45524332303a207472616e7366657220616d6f756e74206578636565647320616044820152676c6c6f77616e636560c01b60648201526084015b60405180910390fd5b6104958533610490868561193a565b610953565b506001949350505050565b60006104aa610c50565b905090565b3360008181526006602090815260408083206001600160a01b038716845290915281205490916103e1918590610490908690611922565b6007546001600160a01b031633146105105760405162461bcd60e51b8152600401610478906118eb565b61051a8282610c92565b5050565b6001600160a01b0381166000908152600e60205260408120545b92915050565b600060608060008060006060610552610340565b6040805180820190915260018152603160f81b60208201524630610574610d74565b604080516000815260208101909152601f60f81b9d959c50939a509198509650945092509050565b60606000600101805461035190611981565b6007546001600160a01b031633146105d85760405162461bcd60e51b8152600401610478906118eb565b61051a8282610dbe565b6007546001600160a01b0316331461060c5760405162461bcd60e51b8152600401610478906118eb565b60025467ffffffffffffffff80831691161061066a5760405162461bcd60e51b815260206004820152601e60248201527f63757272656e74206d6574616461746120697320757020746f206461746500006044820152606401610478565b825161067d90600090602086019061144e565b50815161069190600190602085019061144e565b506002805467ffffffffffffffff191667ffffffffffffffff83161790556106b7610f0d565b505050565b3360009081526006602090815260408083206001600160a01b03861684529091528120548281101561073e5760405162461bcd60e51b815260206004820152602560248201527f45524332303a2064656372656173656420616c6c6f77616e63652062656c6f77604482015264207a65726f60d81b6064820152608401610478565b61074d3385610490868561193a565b5060019392505050565b60006103e1338484610a78565b600754600160a01b900460ff16156107b45760405162461bcd60e51b8152602060048201526013602482015272105b1c9958591e481a5b9a5d1a585b1a5e9959606a1b6044820152606401610478565b6007805460ff60a01b1916600160a01b1790556107d687878787878787610f69565b6107de610f0d565b50505050505050565b6107ef610f0d565b8342111561083f5760405162461bcd60e51b815260206004820152601d60248201527f45524332305065726d69743a206578706972656420646561646c696e650000006044820152606401610478565b60007f6e71edae12b1b97f4d1f60370fef10105fa2faae0126114a169c64845d6126c988888861086e8c611005565b6040805160208101969096526001600160a01b0394851690860152929091166060840152608083015260a082015260c0810186905260e00160405160208183030381529060405280519060200120905060006108c98261102d565b905060006108d982878787611040565b9050896001600160a01b0316816001600160a01b03161461093c5760405162461bcd60e51b815260206004820152601e60248201527f45524332305065726d69743a20696e76616c6964207369676e617475726500006044820152606401610478565b6109478a8a8a610953565b50505050505050505050565b6001600160a01b0383166109b55760405162461bcd60e51b8152602060048201526024808201527f45524332303a20617070726f76652066726f6d20746865207a65726f206164646044820152637265737360e01b6064820152608401610478565b6001600160a01b038216610a165760405162461bcd60e51b815260206004820152602260248201527f45524332303a20617070726f766520746f20746865207a65726f206164647265604482015261737360f01b6064820152608401610478565b6001600160a01b0383811660008181526006602090815260408083209487168084529482529182902085905590518481527f8c5be1e5ebec7d5bd14f71427d1e84f3dd0314c0f7b2291e5b200ac8c7c3b92591015b60405180910390a3505050565b6001600160a01b038316610adc5760405162461bcd60e51b815260206004820152602560248201527f45524332303a207472616e736665722066726f6d20746865207a65726f206164604482015264647265737360d81b6064820152608401610478565b6001600160a01b038216610b3e5760405162461bcd60e51b815260206004820152602360248201527f45524332303a207472616e7366657220746f20746865207a65726f206164647260448201526265737360e81b6064820152608401610478565b6001600160a01b03831660009081526005602052604090205481811015610bb65760405162461bcd60e51b815260206004820152602660248201527f45524332303a207472616e7366657220616d6f756e7420657863656564732062604482015265616c616e636560d01b6064820152608401610478565b610bc0828261193a565b6001600160a01b038086166000908152600560205260408082209390935590851681529081208054849290610bf6908490611922565b92505081905550826001600160a01b0316846001600160a01b03167fddf252ad1be2c89b69c2b068fc378daa952ba7f163c4a11628f55a4df523b3ef84604051610c4291815260200190565b60405180910390a350505050565b600b546000906001600160a01b031630148015610c6e5750600a5446145b15610c7a575060095490565b6104aa610c85611068565b610c8d610d74565b611082565b6001600160a01b038216610ce85760405162461bcd60e51b815260206004820152601f60248201527f45524332303a206d696e7420746f20746865207a65726f2061646472657373006044820152606401610478565b8060006003016000828254610cfd9190611922565b90915550506001600160a01b03821660009081526005602052604081208054839290610d2a908490611922565b90915550506040518181526001600160a01b038316906000907fddf252ad1be2c89b69c2b068fc378daa952ba7f163c4a11628f55a4df523b3ef9060200160405180910390a35050565b600754600854604051600160a81b90920460f01b6001600160f01b031916602083015260228201526000906042015b60405160208183030381529060405280519060200120905090565b6001600160a01b038216610e1e5760405162461bcd60e51b815260206004820152602160248201527f45524332303a206275726e2066726f6d20746865207a65726f206164647265736044820152607360f81b6064820152608401610478565b6001600160a01b03821660009081526005602052604090205481811015610e925760405162461bcd60e51b815260206004820152602260248201527f45524332303a206275726e20616d6f756e7420657863656564732062616c616e604482015261636560f01b6064820152608401610478565b610e9c828261193a565b6001600160a01b03841660009081526005602052604081209190915560038054849290610eca90849061193a565b90915550506040518281526000906001600160a01b038516907fddf252ad1be2c89b69c2b068fc378daa952ba7f163c4a11628f55a4df523b3ef90602001610a6b565b6000610f17611068565b90506000610f23610d74565b600d5490915082141580610f395750600c548114155b1561051a5746600a55600b80546001600160a01b03191630179055610f5e8282611082565b600955600c55600d55565b8651610f7c9060009060208a019061144e565b508551610f9090600190602089019061144e565b506004805460ff90961660ff19909616959095179094556002805467ffffffffffffffff90941667ffffffffffffffff19909416939093179092556007805461ffff909316600160a81b02600162ffff0160a01b03199093166001600160a01b03909216919091179190911790556008555050565b6001600160a01b0381166000908152600e602052604090208054600181018255905b50919050565b600061053861103a610c50565b83611136565b60008060006110518787878761115d565b9150915061105e8161124a565b5095945050505050565b6000611072610340565b604051602001610da39190611827565b60007fd87cd6ef79d4e2b95e15ce8abf732db51ec771f1ca2edccf22a46c729ac56472836110c46040805180820190915260018152603160f81b602082015290565b6040516020016110d49190611827565b60408051601f1981840301815282825280516020918201209083019490945281019190915260608101919091524660808201523060a082015260c0810183905260e0015b60405160208183030381529060405280519060200120905092915050565b60405161190160f01b60208201526022810183905260428101829052600090606201611118565b6000807f7fffffffffffffffffffffffffffffff5d576e7357a4501ddfe92f46681b20a08311156111945750600090506003611241565b8460ff16601b141580156111ac57508460ff16601c14155b156111bd5750600090506004611241565b6040805160008082526020820180845289905260ff881692820192909252606081018690526080810185905260019060a0016020604051602081039080840390855afa158015611211573d6000803e3d6000fd5b5050604051601f1901519150506001600160a01b03811661123a57600060019250925050611241565b9150600090505b94509492505050565b600081600481111561126c57634e487b7160e01b600052602160045260246000fd5b14156112755750565b600181600481111561129757634e487b7160e01b600052602160045260246000fd5b14156112e55760405162461bcd60e51b815260206004820152601860248201527f45434453413a20696e76616c6964207369676e617475726500000000000000006044820152606401610478565b600281600481111561130757634e487b7160e01b600052602160045260246000fd5b14156113555760405162461bcd60e51b815260206004820152601f60248201527f45434453413a20696e76616c6964207369676e6174757265206c656e677468006044820152606401610478565b600381600481111561137757634e487b7160e01b600052602160045260246000fd5b14156113d05760405162461bcd60e51b815260206004820152602260248201527f45434453413a20696e76616c6964207369676e6174757265202773272076616c604482015261756560f01b6064820152608401610478565b60048160048111156113f257634e487b7160e01b600052602160045260246000fd5b141561144b5760405162461bcd60e51b815260206004820152602260248201527f45434453413a20696e76616c6964207369676e6174757265202776272076616c604482015261756560f01b6064820152608401610478565b50565b82805461145a90611981565b90600052602060002090601f01602090048101928261147c57600085556114c2565b82601f1061149557805160ff19168380011785556114c2565b828001600101855582156114c2579182015b828111156114c25782518255916020019190600101906114a7565b506114ce9291506114d2565b5090565b5b808211156114ce57600081556001016114d3565b80356001600160a01b03811681146114fe57600080fd5b919050565b600082601f830112611513578081fd5b813567ffffffffffffffff8082111561152e5761152e6119cc565b604051601f8301601f19908116603f01168101908282118183101715611556576115566119cc565b8160405283815286602085880101111561156e578485fd5b8360208701602083013792830160200193909352509392505050565b803567ffffffffffffffff811681146114fe57600080fd5b803560ff811681146114fe57600080fd5b6000602082840312156115c4578081fd5b6115cd826114e7565b9392505050565b600080604083850312156115e6578081fd5b6115ef836114e7565b91506115fd602084016114e7565b90509250929050565b60008060006060848603121561161a578081fd5b611623846114e7565b9250611631602085016114e7565b9150604084013590509250925092565b600080600080600080600060e0888a03121561165b578283fd5b611664886114e7565b9650611672602089016114e7565b9550604088013594506060880135935061168e608089016115a2565b925060a0880135915060c0880135905092959891949750929550565b600080604083850312156116bc578182fd5b6116c5836114e7565b946020939093013593505050565b6000806000606084860312156116e7578283fd5b833567ffffffffffffffff808211156116fe578485fd5b61170a87838801611503565b9450602086013591508082111561171f578384fd5b5061172c86828701611503565b92505061173b6040850161158a565b90509250925092565b600080600080600080600060e0888a03121561175e578283fd5b873567ffffffffffffffff80821115611775578485fd5b6117818b838c01611503565b985060208a0135915080821115611796578485fd5b506117a38a828b01611503565b9650506117b2604089016115a2565b94506117c06060890161158a565b93506117ce608089016114e7565b925060a088013561ffff811681146117e4578283fd5b8092505060c0880135905092959891949750929550565b60008151808452611813816020860160208601611951565b601f01601f19169290920160200192915050565b60008251611839818460208701611951565b9190910192915050565b60ff60f81b881681526000602060e08184015261186360e084018a6117fb565b8381036040850152611875818a6117fb565b606085018990526001600160a01b038816608086015260a0850187905284810360c08601528551808252838701925090830190845b818110156118c6578351835292840192918401916001016118aa565b50909c9b505050505050505050505050565b6020815260006115cd60208301846117fb565b60208082526017908201527f63616c6c6572206973206e6f7420746865206f776e6572000000000000000000604082015260600190565b60008219821115611935576119356119b6565b500190565b60008282101561194c5761194c6119b6565b500390565b60005b8381101561196c578181015183820152602001611954565b8381111561197b576000848401525b50505050565b600181811c9082168061199557607f821691505b6020821081141561102757634e487b7160e01b600052602260045260246000fd5b634e487b7160e01b600052601160045260246000fd5b634e487b7160e01b600052604160045260246000fdfea26469706673582212203de9d8f3af673eec4b7def57fea7c44ddaacb566240ed7be1ee0e924bc2e586264736f6c63430008040033",
  "immutableReferences": {},
  "source": "// contracts/TokenImplementation.sol\n// SPDX-License-Identifier: Apache 2\n\npragma solidity ^0.8.0;\n\nimport \"./TokenState.sol\";\nimport \"@openzeppelin/contracts/access/Ownable.sol\";\nimport \"@openzeppelin/contracts/utils/Context.sol\";\nimport \"@openzeppelin/contracts/proxy/beacon/BeaconProxy.sol\";\nimport \"@openzeppelin/contracts/utils/cryptography/ECDSA.sol\";\n\n// Based on the OpenZepplin ERC20 implementation, licensed under MIT\ncontract TokenImplementation is TokenState, Context {\n    event Transfer(address indexed from, address indexed to, uint256 value);\n    event Approval(address indexed owner, address indexed spender, uint256 value);\n\n    function initialize(\n        string memory name_,\n        string memory symbol_,\n        uint8 decimals_,\n        uint64 sequence_,\n        address owner_,\n        uint16 chainId_,\n        bytes32 nativeContract_\n    ) initializer public {\n        _initializeNativeToken(\n            name_,\n            symbol_,\n            decimals_,\n            sequence_,\n            owner_,\n            chainId_,\n            nativeContract_\n        );\n\n        // initialize w/ EIP712 state variables for domain separator\n        _initializePermitStateIfNeeded();\n    }\n\n    function _initializeNativeToken(\n        string memory name_,\n        string memory symbol_,\n        uint8 decimals_,\n        uint64 sequence_,\n        address owner_,\n        uint16 chainId_,\n        bytes32 nativeContract_\n    ) internal {\n        _state.name = name_;\n        _state.symbol = symbol_;\n        _state.decimals = decimals_;\n        _state.metaLastUpdatedSequence = sequence_;\n\n        _state.owner = owner_;\n\n        _state.chainId = chainId_;\n        _state.nativeContract = nativeContract_;\n    }\n\n    function _initializePermitStateIfNeeded() internal {\n        // If someone were to change the implementation of name(), we\n        // need to make sure we recache.\n        bytes32 hashedName = _eip712DomainNameHashed();\n\n        // If for some reason the salt generation changes with newer\n        // token implementations, we need to make sure the state reflects\n        // the new salt.\n        bytes32 salt = _eip712DomainSalt();\n\n        // check cached values\n        if (_state.cachedHashedName != hashedName || _state.cachedSalt != salt) {\n            _state.cachedChainId = block.chainid;\n            _state.cachedThis = address(this);\n            _state.cachedDomainSeparator = _buildDomainSeparator(hashedName, salt);\n            _state.cachedSalt = salt;\n            _state.cachedHashedName = hashedName;\n        }\n    }\n\n    function name() public view returns (string memory) {\n        return _state.name;\n    }\n\n    function symbol() public view returns (string memory) {\n        return _state.symbol;\n    }\n\n    function owner() public view returns (address) {\n        return _state.owner;\n    }\n\n    function decimals() public view returns (uint8) {\n        return _state.decimals;\n    }\n\n    function totalSupply() public view returns (uint256) {\n        return _state.totalSupply;\n    }\n\n    function chainId() public view returns (uint16) {\n        return _state.chainId;\n    }\n\n    function nativeContract() public view returns (bytes32) {\n        return _state.nativeContract;\n    }\n\n    function balanceOf(address account_) public view returns (uint256) {\n        return _state.balances[account_];\n    }\n\n    function transfer(address recipient_, uint256 amount_) public returns (bool) {\n        _transfer(_msgSender(), recipient_, amount_);\n        return true;\n    }\n\n    function allowance(address owner_, address spender_) public view returns (uint256) {\n        return _state.allowances[owner_][spender_];\n    }\n\n    function approve(address spender_, uint256 amount_) public returns (bool) {\n        _approve(_msgSender(), spender_, amount_);\n        return true;\n    }\n\n    function transferFrom(address sender_, address recipient_, uint256 amount_) public returns (bool) {\n        _transfer(sender_, recipient_, amount_);\n\n        uint256 currentAllowance = _state.allowances[sender_][_msgSender()];\n        require(currentAllowance >= amount_, \"ERC20: transfer amount exceeds allowance\");\n        _approve(sender_, _msgSender(), currentAllowance - amount_);\n\n        return true;\n    }\n\n    function increaseAllowance(address spender_, uint256 addedValue_) public returns (bool) {\n        _approve(_msgSender(), spender_, _state.allowances[_msgSender()][spender_] + addedValue_);\n        return true;\n    }\n\n    function decreaseAllowance(address spender_, uint256 subtractedValue_) public returns (bool) {\n        uint256 currentAllowance = _state.allowances[_msgSender()][spender_];\n        require(currentAllowance >= subtractedValue_, \"ERC20: decreased allowance below zero\");\n        _approve(_msgSender(), spender_, currentAllowance - subtractedValue_);\n\n        return true;\n    }\n\n    function _transfer(address sender_, address recipient_, uint256 amount_) internal {\n        require(sender_ != address(0), \"ERC20: transfer from the zero address\");\n        require(recipient_ != address(0), \"ERC20: transfer to the zero address\");\n\n        uint256 senderBalance = _state.balances[sender_];\n        require(senderBalance >= amount_, \"ERC20: transfer amount exceeds balance\");\n        _state.balances[sender_] = senderBalance - amount_;\n        _state.balances[recipient_] += amount_;\n\n        emit Transfer(sender_, recipient_, amount_);\n    }\n\n    function mint(address account_, uint256 amount_) public onlyOwner {\n        _mint(account_, amount_);\n    }\n\n    function _mint(address account_, uint256 amount_) internal {\n        require(account_ != address(0), \"ERC20: mint to the zero address\");\n\n        _state.totalSupply += amount_;\n        _state.balances[account_] += amount_;\n        emit Transfer(address(0), account_, amount_);\n    }\n\n    function burn(address account_, uint256 amount_) public onlyOwner {\n        _burn(account_, amount_);\n    }\n\n    function _burn(address account_, uint256 amount_) internal {\n        require(account_ != address(0), \"ERC20: burn from the zero address\");\n\n        uint256 accountBalance = _state.balances[account_];\n        require(accountBalance >= amount_, \"ERC20: burn amount exceeds balance\");\n        _state.balances[account_] = accountBalance - amount_;\n        _state.totalSupply -= amount_;\n\n        emit Transfer(account_, address(0), amount_);\n    }\n\n    function _approve(address owner_, address spender_, uint256 amount_) internal virtual {\n        require(owner_ != address(0), \"ERC20: approve from the zero address\");\n        require(spender_ != address(0), \"ERC20: approve to the zero address\");\n\n        _state.allowances[owner_][spender_] = amount_;\n        emit Approval(owner_, spender_, amount_);\n    }\n\n    function updateDetails(string memory name_, string memory symbol_, uint64 sequence_) public onlyOwner {\n        require(_state.metaLastUpdatedSequence < sequence_, \"current metadata is up to date\");\n\n        _state.name = name_;\n        _state.symbol = symbol_;\n        _state.metaLastUpdatedSequence = sequence_;\n\n        // Because the name is updated, we need to recache the domain separator.\n        // For old implementations, none of the caches may have been written to yet.\n        _initializePermitStateIfNeeded();\n    }\n\n    modifier onlyOwner() {\n        require(owner() == _msgSender(), \"caller is not the owner\");\n        _;\n    }\n\n    modifier initializer() {\n        require(\n            !_state.initialized,\n            \"Already initialized\"\n        );\n\n        _state.initialized = true;\n\n        _;\n    }\n\n    /**\n     * @dev Returns the domain separator for the current chain.\n     */\n    function _domainSeparatorV4() internal view returns (bytes32) {\n        if (address(this) == _state.cachedThis && block.chainid == _state.cachedChainId) {\n            return _state.cachedDomainSeparator;\n        } else {\n            return _buildDomainSeparator(\n                _eip712DomainNameHashed(), _eip712DomainSalt()\n            );\n        }\n    }\n\n    function _buildDomainSeparator(bytes32 hashedName, bytes32 salt) internal view returns (bytes32) {\n        return keccak256(\n            abi.encode(\n                keccak256(\n                    \"EIP712Domain(string name,string version,uint256 chainId,address verifyingContract,bytes32 salt)\"\n                ),\n                hashedName,\n                keccak256(abi.encodePacked(_eip712DomainVersion())),\n                block.chainid,\n                address(this),\n                salt\n            )\n        );\n    }\n\n    /**\n     * @dev Given an already https://eips.ethereum.org/EIPS/eip-712#definition-of-hashstruct[hashed struct], this\n     * function returns the hash of the fully encoded EIP712 message for this domain.\n     *\n     * This hash can be used together with {ECDSA-recover} to obtain the signer of a message. For example:\n     *\n     * ```solidity\n     * bytes32 digest = _hashTypedDataV4(keccak256(abi.encode(\n     *     keccak256(\"Mail(address to,string contents)\"),\n     *     mailTo,\n     *     keccak256(bytes(mailContents))\n     * )));\n     * address signer = ECDSA.recover(digest, signature);\n     * ```\n     */\n    function _hashTypedDataV4(bytes32 structHash) internal view returns (bytes32) {\n        return ECDSA.toTypedDataHash(_domainSeparatorV4(), structHash);\n    }\n\n    /**\n     * @dev See {IERC20Permit-permit}.\n     */\n    function permit(\n        address owner_,\n        address spender_,\n        uint256 value_,\n        uint256 deadline_,\n        uint8 v_,\n        bytes32 r_,\n        bytes32 s_\n    ) public {\n        // for those tokens that have been initialized before permit, we need to set\n        // the permit state variables if they have not been set before\n        _initializePermitStateIfNeeded();\n\n        // permit is only allowed before the signature's deadline\n        require(block.timestamp <= deadline_, \"ERC20Permit: expired deadline\");\n\n        bytes32 structHash = keccak256(\n            abi.encode(\n                keccak256(\n                    \"Permit(address owner,address spender,uint256 value,uint256 nonce,uint256 deadline)\"\n                ),\n                owner_,\n                spender_,\n                value_,\n                _useNonce(owner_),\n                deadline_\n            )\n        );\n\n        bytes32 message = _hashTypedDataV4(structHash);\n        address signer = ECDSA.recover(message, v_, r_, s_);\n\n        // if we cannot recover the token owner, signature is invalid\n        require(signer == owner_, \"ERC20Permit: invalid signature\");\n\n        _approve(owner_, spender_, value_);\n    }\n\n    /**\n     * @dev See {IERC20Permit-DOMAIN_SEPARATOR}.\n     */\n    // solhint-disable-next-line func-name-mixedcase\n    function DOMAIN_SEPARATOR() public view returns (bytes32) {\n        return _domainSeparatorV4();\n    }\n\n    function eip712Domain() public view returns (\n        bytes1 domainFields,\n        string memory domainName,\n        string memory domainVersion,\n        uint256 domainChainId,\n        address domainVerifyingContract,\n        bytes32 domainSalt,\n        uint256[] memory domainExtensions\n    ) {\n        return (\n            hex\"1F\", // 11111\n            name(),\n            _eip712DomainVersion(),\n            block.chainid,\n            address(this),\n            _eip712DomainSalt(),\n            new uint256[](0)\n        );\n    }\n\n    function _eip712DomainVersion() internal pure returns (string memory) {\n        return \"1\";\n    }\n\n    function _eip712DomainNameHashed() internal view returns (bytes32) {\n        return keccak256(abi.encodePacked(name()));\n    }\n\n    function _eip712DomainSalt() internal view returns (bytes32) {\n        return keccak256(abi.encodePacked(_state.chainId, _state.nativeContract));\n    }\n}\n",
  "sourcePath": "/home/kpeters/repos/wormhole/ethereum/contracts/bridge/token/TokenImplementation.sol",
  "compiler": {
    "name": "solc",
    "version": "0.8.4+commit.c7e474f2.Emscripten.clang"
  },
  "schemaVersion": "3.4.1",
  "updatedAt": "2022-10-28T15:54:25.512Z",
  "devdoc": {
    "kind": "dev",
    "methods": {
      "DOMAIN_SEPARATOR()": {
        "details": "See {IERC20Permit-DOMAIN_SEPARATOR}."
      },
      "nonces(address)": {
        "details": "See {IERC20Permit-nonces}."
      },
      "permit(address,address,uint256,uint256,uint8,bytes32,bytes32)": {
        "details": "See {IERC20Permit-permit}."
      }
    },
    "version": 1
  },
  "userdoc": {
    "kind": "user",
    "methods": {},
    "version": 1
  }
}